:100000000C94A4000C94B41E0C948D1E0C94CC0083
:100010000C94CC000C94CC000C94CC000C94CC0030
:100020000C94CC000C94CC000C94CC000C94CC0020
:100030000C94CC000C94CC000C94CC000C94CC0010
:100040000C94431E0C94CC000C94CC000C94CC006B
:100050000C94CC000C94CC000C94CC000C94CC00F0
:100060000C94CC000C94CC0007634236B79BD8A705
:100070001A39685618AEBAAB558C1D3CB7CC5763CD
:10008000BD6DEDFD753EF6177231BF000000803F7B
:1000900008000000BE922449123EABAAAA2ABECD97
:1000A000CCCC4C3E00000080BEABAAAAAA3E000009
:1000B0000000BF000000803F000000000008417801
:1000C000D3BB4387D1133D190E3CC3BD4282AD2B38
:1000D0003E68EC8276BED98FE1A93E4C80EFFFBE30
:1000E00001C4FF7F3F00000000000000000024006A
:1000F00027002A0000000000250028002B00000037
:1001000000080002010000030407000000000000D6
:1001100000000102040810204080010204081020A1
:10012000010204081020000000002300260029001E
:10013000040404040404040402020202020203038D
:1001400003030303E21E152A11241FBECFEFD8E0DC
:10015000DEBFCDBF12E0A0E0B1E0EEEDF3E602C0FD
:1001600005900D92A434B107D9F723E0A4E4B2E0DE
:1001700001C01D92A33DB207E1F710E0C3EAD0E051
:1001800004C02197FE010E941C2DC23AD107C9F775
:100190000E946D200C94E2310C940000CF93DF9309
:1001A000EC01FA013296E60FF71FDC019D012C1BD2
:1001B0003D0BCF01861B970B4D91442311F04193CA
:1001C000F5CFAC01421B530B640F751FFB01329737
:1001D000308361507109FB012083DF91CF91089535
:1001E00080916B0390916C03009711F480E02FC015
:1001F000DC01ED91FC910688F789E02D09952091AD
:100200008E0330918F0381111FC0232B79F78DEF5F
:100210009FEF90938F0380938E0380916B03909157
:100220006C03DC01ED91FC910680F781E02D0995CE
:1002300080916B0390916C03DC01ED91FC9104883B
:10024000F589E02D0995D2CF81E0232B79F6089529
:100250008CBD9DBD089520E3FC0120833296862F3E
:1002600082958F706F706A3030F4605D6293682F92
:100270008111F5CF0895695CF9CFFC01818D928DD4
:1002800008950895833081F028F4813099F0823008
:10029000A9F008958730A9F08830C9F08430B1F40E
:1002A000809180008F7D03C0809180008F77809344
:1002B0008000089584B58F7784BD089584B58F7DBF
:1002C000FBCF8091B0008F778093B000089580912C
:1002D000B0008F7DF9CF1F93CF93DF93282F30E0AD
:1002E000F901E250FF4F8491F901EE5EFE4FD49187
:1002F000F901E05DFE4FC491CC23A9F0162F8111C6
:100300000E944201EC2FF0E0EE0FFF1FEC50FF4F78
:10031000A591B4918FB7F894EC91111108C0D095C4
:10032000DE23DC938FBFDF91CF911F910895DE2BE9
:10033000F8CFCF93DF9390E0FC01EE5EFE4F249167
:10034000805D9E4FFC0184918823C9F090E0880F66
:10035000991FFC01E651FF4FA591B491FC01EC50AF
:10036000FF4FC591D49161110DC09FB7F8948C9146
:10037000209582238C938881282328839FBFDF9137
:10038000CF910895623051F49FB7F8943C91822F39
:10039000809583238C93E8812E2BEFCF8FB7F89431
:1003A000EC912E2B2C938FBFEACF1F93CF93DF932B
:1003B000182FEB0161E00E949901209739F460E069
:1003C000812FDF91CF911F910C946B01CF3FD1050D
:1003D00011F461E0F5CFE12FF0E0E250FF4FE4913E
:1003E000E33031F140F4E130B1F0E230E1F0C03817
:1003F000D1057CF7E4CFE73029F1E83059F1E4305A
:10040000B1F780918000806280938000D0938B0050
:10041000C0938A0004C084B5806884BDC7BDDF91E5
:10042000CF911F91089584B5806284BDC8BDF7CF78
:1004300080918000806880938000D0938900C09371
:100440008800EDCF8091B00080688093B000C093A9
:10045000B300E5CF8091B00080628093B000C0937C
:10046000B400DDCF3FB7F8948091DE029091DF02B7
:10047000A091E002B091E10226B5A89B05C02F3FF4
:1004800019F00196A11DB11D3FBFBA2FA92F982FBA
:100490008827BC01CD01620F711D811D911D43E0B4
:1004A000660F771F881F991F4A95D1F708958F927D
:1004B0009F92AF92BF92CF92DF92EF92FF924B0149
:1004C0005C010E9432026B017C010E9432026C19B5
:1004D0007D098E099F09683E734081059105A8F347
:1004E00021E0821A9108A108B10888EEC80E83E0C5
:1004F000D81EE11CF11C81149104A104B10429F758
:10050000FF90EF90DF90CF90BF90AF909F908F9033
:1005100008952FB7F8946091DA027091DB02809110
:10052000DC029091DD022FBF0895EF92FF920F93AE
:100530001F93CF93DF9300D000D0CDB7DEB7FA0181
:1005400020E08E010F5F1F4F9E2F9F77EE0FEF2F42
:10055000EE1FFF0BF195309709F09068D801A20FBC
:10056000B11D9C932F5F309779F730E0FB01E21BC0
:10057000F30B8483FB01E21BF30B3596D801CD010D
:10058000801B910B821793071CF48D918193F7CFF9
:100590002F5F3F4F80916B0390916C038901040F93
:1005A000151F621B730B6B5F7F4FDC01ED91FC919C
:1005B0000280F381E02DA80109957C010E94890247
:1005C00060937703709378038093790390937A0311
:1005D00081E00E151F0509F080E00F900F900F903D
:1005E0000F90DF91CF911F910F91FF90EF900895A1
:1005F0008F929F92AF92BF92CF92DF92EF92FF9233
:10060000CF93DF93EC010E9489024B015C01809142
:100610006B0390916C03DC01ED91FC910084F185FA
:10062000E02D0995892BB9F40E9489026B017C01A8
:10063000C818D908EA08FB082091730330917403A5
:10064000A8EEB3E00E94062DC616D706E806F90606
:10065000F0F280E00DC080916B0390916C03DC019F
:10066000ED91FC910284F385E02D0995888381E06A
:10067000DF91CF91FF90EF90DF90CF90BF90AF9040
:100680009F908F9008952F923F924F925F926F921A
:100690007F928F929F92AF92BF92CF92DF92EF9212
:1006A000FF920F931F93CF93DF93CDB7DEB72A97B7
:1006B0000FB6F894DEBF0FBECDBF1C0180916D0355
:1006C00090916E030E94F80281111CC060E070E0FE
:1006D000CB012A960FB6F894DEBF0FBECDBFDF91D7
:1006E000CF911F910F91FF90EF90DF90CF90BF902F
:1006F000AF909F908F907F906F905F904F903F90C2
:100700002F900895E0916D03F0916E03D0801982CF
:10071000EE24E394F12C812C912C5401412C512C8A
:1007200032014394CE0101960E94F802882371F2AF
:1007300087010F5F1F4F8981E0916D03F0916E0378
:10074000EE0DFF1D8083E981AE2FAF77B0E0A301EE
:1007500092010E949A2C860E971EA81EB91E37E0A1
:10076000440C551C661C771C3A95D1F7E7FD3FC039
:10077000BD2DB07FBE838FEF800FF1018083B0333A
:1007800009F04CC080916D0390916E03800F911F12
:100790000E94F802882309F499CF20916D033091CB
:1007A0006E03C7010296820F931F0E94F8028823EE
:1007B00009F48CCF0E5F1F4FE0916D03F0916E0333
:1007C000D1018C91DF01A80FB11D11968C91119769
:1007D00090E0982F882712962C91820F911D2081EE
:1007E00021FD0296F2E0E0E030E020E01DC078015B
:1007F0000530110509F096CF8FEF9FEF90938F038F
:1008000080938E0380916B0390916C03DC01ED91DA
:10081000FC910488F589E02D099558CFF0E0E0E0DF
:1008200030E020E090E080E070E060E0CF2EDE2E4F
:10083000E32EF22E28013B014C185D086E087F085C
:100840004A825B826C827D822C01712C612C4F82EA
:10085000588669867A864A805B806C807D804C0CE5
:100860005D1C6E1C7F1CC814D904EA04FB0408F04C
:1008700046C0CE0101960E94F802882309F426CFD3
:1008800080918C0390918D03009711F12E8120337C
:10089000F9F4D1012C914EEF5FEF6FEF7FEF421B28
:1008A000510961097109440E551E661E771E2F817C
:1008B000388549855A85241535054605570540F480
:1008C000DC01ED91FC910190F081E02D69810995A9
:1008D00080916F03909170030817190750F4898174
:1008E000E0916D03F0916E03E00FF11F80830F5FC5
:1008F0001F4FBFEFCB1ADB0AEB0AFB0AACCF80918C
:100900008C0390918D03892B69F480916F039091F2
:100910007003B0E0A0E084159505A605B70510F4B6
:1009200010E000E0B80190E080E0D3CE0895EF92AF
:10093000FF920F931F93CF93DF93EC018B017A010A
:100940000E948902688B798B8A8B9B8B8C819D811D
:10095000DC01ED91FC910280F381E02DA701B8014B
:10096000DF91CF911F910F91FF90EF9009941F930A
:10097000CF93DF93EC01162F0E948902688B798B4D
:100980008A8B9B8B8C819D81DC01ED91FC91019088
:10099000F081E02D612FDF91CF911F91099408958F
:1009A000FC0120812EBD9B012150310941F0518174
:1009B0000DB407FEFDCF4EB55EBD4193F5CF61503E
:1009C0007109860F971F0DB407FEFDCF2EB5FC01F0
:1009D00020830895E0914502F09146028081909134
:1009E0004402892B80830895E0914502F0914602EC
:1009F00090818091440280958923808308958EBDE3
:100A000000000DB407FEFDCF8EB50895AF92BF92E2
:100A1000CF92DF92EF92FF920F931F93CF93DF93CA
:100A2000CDB7DEB728970FB6F894DEBF0FBECDBFA7
:100A30008C017B016A018091FE028333E1F458014D
:100A4000A40EB51EA016B10609F46FC00E94F404EE
:100A500080EF0E94FF04812F0E94FF04802F0E94DC
:100A6000FF040F5F1F4FF70181917F010E94FF0478
:100A70000E94EA04E7CF5B01A40EB51E8433C1F4E3
:100A80000E94F40419830A838D2D80688B83CC82A5
:100A900064E070E0CE0101960E94D004AE14BF0461
:100AA00009F441C0F70181917F010E94FF04F6CF54
:100AB0000E94F4040F3F110509F028F419820A83FB
:100AC00084E08B830CC017FD17C019820A8333E0C2
:100AD000169507953A95E1F7007E0C600B8386E04A
:100AE000C816D104A0F5F701DE011496EA15FB053E
:100AF00099F081918D93FACFC80126E0969587955C
:100B00002A95E1F7807E19830A830115104C10F4B1
:100B10008461D7CF8C61D5CFB6016D5F7F4FCE0199
:100B200001960E94D0040E94EA04C60128960FB6DE
:100B3000F894DEBF0FBECDBFDF91CF911F910F9113
:100B4000FF90EF90DF90CF90BF90AF90089563E05B
:100B500070E0CE0101960E94D004F70181917F01DF
:100B60000E94FF04AE14BF04C1F7DDCFCF93DF9323
:100B70001F92CDB7DEB7898341E050E0BE016F5FC1
:100B80007F4F90E080E00E9406050F90DF91CF91AB
:100B9000089590E02091FE02233339F40C96982FAB
:100BA000990F990F990F80E008954896F8CFDA01D0
:100BB000E0914802F0E0FE2FEE27E60FF71F90E0ED
:100BC000982F8827A901BD018E0F9F1F0C94060541
:100BD000CF93DF9300D0CDB7DEB779836A8322E06D
:100BE00030E0AE014F5F5F4F60E170E00E94D705DB
:100BF0000F900F90DF91CF910895CF93DF9300D0A6
:100C0000CDB7DEB779836A8322E030E0AE014F5F73
:100C10005F4F64E070E00E94D7050F900F90DF9166
:100C2000CF910895CF93DF931F92CDB7DEB7209178
:100C3000480230E0322F2227260F371F90E0982FEE
:100C40008827498341E050E0BE016F5F7F4F820FEC
:100C5000931F0E9406050F90DF91CF910895CF93C7
:100C6000DF931F92CDB7DEB76983DC01ED91FC9174
:100C70000280F381E02D41E050E0BE016F5F7F4FC5
:100C800009950F90DF91CF910895FC019485FB01A8
:100C90008485981303C081E0943008F080E00895C3
:100CA000CF93DF931F92CDB7DEB76983DC01ED915F
:100CB000FC910280F381E02D41E050E0BE016F5FC6
:100CC0007F4F09950F90DF91CF91089544E050E058
:100CD000BC018FE090E00C9406050895FF920F93FD
:100CE0001F93CF93DF93EB01FC01178A168A2A81A9
:100CF000211109C02B81211106C02C81211103C0B3
:100D00002D81222301F141155105E9F08A01FC01F1
:100D1000F08C80E591E00E942801AE014E5F5F4FAC
:100D200024E030E06CE070E08F2D0E94D705B80120
:100D30008F2D0E94E80581E090E0DF91CF911F9117
:100D40000F91FF90089580E0F7CFFC018485958591
:100D50000895FC018489958908952DE931E0FC010D
:100D600031832083FB014089518962897389FC01A9
:100D700042835383648375830895DC01ED91FC9174
:100D8000048CF58DE02D099490E080E00895862F85
:100D9000642F0C949901CF93DF93FC01218930E0FB
:100DA000F901E250FF4F8491F901EE5EFE4FD491BC
:100DB000F901E05DFE4FC491CC2379F081110E94CE
:100DC0004201EC2FF0E0EE0FFF1FEA5DFE4FA59110
:100DD000B491EC91ED2381E009F480E08170DF9122
:100DE000CF910895CF93DF93EC0118860E94CB0634
:100DF000882319F08885836088870E9489026A8326
:100E00007B838C839D83DF91CF910895CF92DF9276
:100E1000EF92FF920F931F93CF93DF93EC0188859E
:100E20008B7F8887CE010E94CB06182F88858695F8
:100E300081701817B9F00E9489026A837B838C83C2
:100E40009D83888592E089278887888582FB88270B
:100E500080F9DF91CF911F910F91FF90EF90DF907C
:100E6000CF9008950E948902CA80DB80EC80FD80CB
:100E7000AB01BC014C195D096E097F098E819F8110
:100E8000B0E0A0E0481759076A077B07F0F28885B1
:100E900081701817D1F20E9489026A837B838C8348
:100EA0009D83888591E08927846088870E948902D4
:100EB00009851A852B853C85601B710B820B930B72
:100EC0006D877E878F87988B0E94890269877A87D2
:100ED0008B879C87BACF8230A1F08330F1F08130CC
:100EE00051F061E08FE00E946B0160E080E10E94C0
:100EF0006B0161E00FC060E08FE00E946B0161E078
:100F0000F5CF61E08FE00E946B0161E080E10E941B
:100F10006B0160E081E10C946B0161E0EDCFDC01DD
:100F2000ED91FD918081ED91FD919081ED91FD918B
:100F30006C9163708E2309F064609F2309F06860F0
:100F4000ECEAF7E0E60FF11D659565956D936D91FF
:100F50007D918D919D91099423C01AC012C016C035
:100F600010C01EC009C014C013C006C019C009C0FB
:100F70000DC007C00DC014C062507040804090404A
:100F80000BC0615070408040904006C06E5F01C051
:100F90006F5F7F4F8F4F9F4F9E938E937E936E9385
:100FA000089580913B0390913C030C948F078091AE
:100FB0003D0390913E030C948F07FC017687658773
:100FC0000895DC01ED91FC91068CF78DE02D0995DB
:100FD00091E089270895862F089581E08627089556
:100FE00021E0FC018485843008F020E0822F089500
:100FF0000F931F93CF93DF93EC0100916F03109138
:101000007003B8010E94FA2A209709F441C009969A
:1010100008171907E8F10E94F0008823C9F18091B0
:10102000750390917603019681F1909376038093F6
:101030007503E0916D03F0916E03809176038583D3
:10104000E0916D03F0916E0380917503868360914A
:101050006D0370916E0347E050E0CE010E94CE0018
:10106000E0916D03F0916E03E80FF91F1082AC015F
:101070004450510960916D0370916E0382E8DF91D5
:10108000CF911F910F910C94950281E090E0CDCF0C
:1010900080E0DF91CF911F910F910895AF92BF92A1
:1010A000CF92DF92EF92FF920F931F93CF93DF9334
:1010B00000D000D0CDB7DEB78C016B017A018091F2
:1010C000FE028333E9F45B016801C40ED51EC0162D
:1010D000D106A9F10E94F4048FE00E94FF04812F41
:1010E0000E94FF04802F0E94FF040F5F1F4F80E0CB
:1010F0000E94FF04F50181935F010E94EA04E7CF9B
:10110000843369F50E94F40419830A838F2D8F7745
:101110008B83EC8264E070E0CE0101960E94D004E3
:10112000A70170E060E0C6010E94CB31E114F10438
:1011300021F0B701C6010E94D0040E94EA04C70151
:101140000F900F900F900F90DF91CF911F910F9103
:10115000FF90EF90DF90CF90BF90AF9008950E94E6
:10116000F4040F3F110509F030F419820A831B8241
:1011700063E070E0D1CF17FD0BC019820A8333E022
:10118000169507953A95E1F7007E08600B83F0CF3E
:10119000C80126E0969587952A95E1F7807E198308
:1011A0000A830115104C18F480618B83E1CF8861AC
:1011B000FCCFCF93DF931F92CDB7DEB720914802CB
:1011C00030E0322F2227260F371F90E0982F8827F4
:1011D00041E050E0BE016F5F7F4F820F931F0E947E
:1011E0004E0889810F90DF91CF910895CF93C82F3A
:1011F000462F61E070E00E94120661E070E08C2FE3
:101200000E94D9088111F9CFCF910895CF93C82FAB
:1012100080E591E00E94280168E070E08C2FCF917A
:101220000C94F608CF93C82F80E591E00E94280126
:1012300060E170E08C2FCF910C94F608CF93DF9390
:10124000EC01888D843020F40E94120984E0888F9C
:10125000DF91CF910895CF93C82F80E591E00E9450
:10126000280163E070E08C2FCF910C94D908CF93C4
:10127000DF93EC018C858430D0F40E942B098431FB
:1012800089F0882379F0883169F021E08C3159F4B4
:10129000E881F9810084F185E02DCE01099521E0F6
:1012A000892B09F420E0822FDF91CF91089580E00F
:1012B000FBCFCF92DF92EF92FF92CF93DF93EC01BF
:1012C0008C85843068F40E9406090E9489026B01B3
:1012D0007C018C850E942B09811109C084E08C87D8
:1012E000DF91CF91FF90EF90DF90CF90089561E074
:1012F00070E080E090E00E9457020E948902AB01FA
:10130000BC014C195D096E097F098D859E85B0E091
:10131000A0E0481759076A077B07D8F28C850E941E
:101320001209DCCFCF93FC01C08D80E591E00E94D3
:10133000280160E270E08C2F0E94F60862E070E005
:101340008C2F0E94D90884FD16C062E070E08C2FBB
:101350000E94D90883FF0AC048E162E070E08C2F48
:101360000E94120680E090E0CF91089580E591E020
:101370000E942801E3CF40E162E070E08C2F0E94E0
:10138000120681E0F0CFCF93DF931F92CDB7DEB787
:1013900041E050E0BE016F5F7F4F90E080E00E942F
:1013A0004E0889810F90DF91CF910895CF93DF93FD
:1013B000C4E1D0E00E94C309882361F061E070E0DD
:1013C00080E090E00E9457022197A1F780E0DF9132
:1013D000CF91089581E0FBCF1F93CF93DF931F92AE
:1013E000CDB7DEB7182F80E591E00E942801812F4C
:1013F0000E94C90527E0129FF0011124EE51FD4F14
:1014000022813381377041E050E0BE016F5F7F4F32
:10141000820F931F0E944E0889810F90DF91CF9118
:101420001F910895FC01808D843040F4218D328D10
:10143000232B21F00E94EC0990E008958FEF9FEF9D
:101440000895CF93DF93FC012485243028F08FEF9B
:101450009FEFDF91CF910895EC010190F081E02D95
:101460000084F185E02D0995892B89F38C850E94F4
:10147000EC0990E0EECFDA01E0914802F0E0FE2FB7
:10148000EE27E60FF71F90E0982F8827A901BD01EE
:101490008E0F9F1F0C944E088F929F92AF92BF9217
:1014A000CF92DF92EF92FF921F93CF93DF93CDB74E
:1014B000DEB72C970FB6F894DEBF0FBECDBF2091DC
:1014C000FE0214E0222339F16B017C0180E591E0FA
:1014D0000E9428015E0127E0A20EB11C450110E028
:1014E00063E070E0812F0E94D908F40181934F01DD
:1014F000882349F11F5F143099F710E0F5018191BD
:101500005F018D31D9F08831C9F08A518230B0F055
:101510001F5F143099F7812F2C960FB6F894DEBF19
:101520000FBECDBFDF91CF911F91FF90EF90DF9065
:10153000CF90BF90AF909F908F90089560E170E042
:10154000812F0E94F608A12EB12C80EF91E0019727
:10155000F1F742E870E060E0812F0E9412064FEF41
:1015600062E070E0812F0E941206B601C114D1041E
:1015700091F4809111019091120101968115F0EC86
:101580009F0708F45CC09093120180931101609151
:10159000110170911201812F0E94FD0586E0EDE19D
:1015A000F1E0DE01119601900D928A95E1F7F701C5
:1015B00083818F778C8384818D8385818E83A7013E
:1015C0004E5F5F4F24E030E06CE070E0812F0E94BE
:1015D000D705B601812F0E94E80526E030E0AE0174
:1015E0004F5F5F4F66E070E0812F0E94D70561E09A
:1015F00070E0812F0E94F60827E02A9DC0012B9DF4
:10160000900D11249C012E513D4F7901F901118259
:10161000108222E030E0AE01455F5F4F68E270E08B
:10162000812F0E943B0A8B859C85982789279827C4
:10163000F701938382831682158214826CCF80E037
:1016400090ECA1CFCF92DF92EF92FF920F931F9376
:10165000CF93DF9300D000D000D0CDB7DEB78C01A0
:101660006B017A01FC01808D843010F40E94120914
:101670008DE991E09A838983F60182819381A48127
:10168000B5818B839C83AD83BE83B701CE01019668
:101690000E944C0AF801808F8430A0F4F586E4861D
:1016A000128E118E81E026960FB6F894DEBF0FBE23
:1016B000CDBFDF91CF911F910F91FF90EF90DF9001
:1016C000CF90089580E0EFCFAF92BF92CF92DF929C
:1016D000EF92FF920F931F93CF93DF9300D000D030
:1016E00000D0CDB7DEB7082F6B0180E591E00E94F6
:1016F00028019E012F5F3F4F7901590110E063E0FF
:1017000070E0812F0E94D908F50181935F01882341
:1017100041F11F5F143099F710E0F70181917F01CB
:101720008D31D1F08831C1F08A518230A8F01F5F2D
:10173000143099F7812F26960FB6F894DEBF0FBEAE
:10174000CDBFDF91CF911F910F91FF90EF90DF9070
:10175000CF90BF90AF90089560E170E0812F0E941C
:10176000F608E12EF12C80EF91E00197F1F7402F80
:1017700070E060E0812F0E9412064FEF62E070E09F
:10178000812F0E941206B601CD2889F480911101A3
:101790009091120101968115F0EC9F0798F19093BA
:1017A0001201809311016091110170911201812F3A
:1017B0000E94FD0561E070E0812F0E94F60827E09D
:1017C0002E9DC0012F9D900D11249C012E513D4F47
:1017D0007901F9011182108222E030E0AE014B5F05
:1017E0005F4F68E270E0812F0E943B0A8D819E81ED
:1017F000982789279827F701938382831682158279
:10180000148298CF80E090ECCACFCF92DF92EF9213
:10181000FF921F93CF93DF93EC017B016A018C85CC
:10182000843048F40E942B09882319F08C850E948B
:10183000060984E08C87F70182819381A481B581B8
:101840000097A105B10551F490E080E0DF91CF91C0
:101850001F91FF90EF90DF90CF9008958F3F9F4FA3
:10186000AF4FBF4F89F38091FE02811103C084E026
:101870008C87EACF70E060E081E20E94640B182F51
:101880008C87843008F780E591E00E942801A70149
:101890004E5F5F4F24E030E06CE070E0812F0E94EB
:1018A000D705B601812F0E94E80564E070E0812F22
:1018B0000E94F6080E9489026B017C018C850E94BF
:1018C0002B09873109F18C31F9F0882309F4BCCF59
:1018D0000E948902AB01BC014C195D096E097F09A8
:1018E0008D859E85B0E0A0E084179507A607B70711
:1018F00038F061E070E080E090E00E945702DECFB7
:101900008C850E941209B3CF81E090E09FCF0F93A6
:101910001F93CF93DF93EC018B01888D843010F4FB
:101920000E9412098091FE02811107C094E0988FF5
:10193000DF91CF911F910F910895B80182E00E942D
:10194000640B888F843030F41D870C871A8E198EB3
:1019500081E0EECF80E0ECCF7F928F929F92AF92AA
:10196000BF92CF92DF92EF92FF920F931F93CF938C
:10197000DF9300D0CDB7DEB7782E8B014A01590135
:1019800022E030E0AE014F5F5F4F64E270E00E9402
:101990003B0AE980FA80FE24EF24FE24E00EF11ECB
:1019A000970137704091FE02072D10E0433309F094
:1019B00042C0085F1F4F102F0027110F110F110F8A
:1019C000C901800F911F4733C9F1A9014A0D5B1D61
:1019D0004130584098F160E078E06B01C21AD30AB8
:1019E000A601B4010E940605A5014C195D09B401C8
:1019F0006C0D7D1DC8010E940605EA0CFB1CF982D6
:101A0000EA8222E030E0AE014F5F5F4F64E270E0B7
:101A1000872D0E94D7050F900F90DF91CF911F91D6
:101A20000F91FF90EF90DF90CF90BF90AF909F907D
:101A30008F907F900895005F1F4FBDCFA501B40127
:101A4000DACFEF92FF921F93CF93DF9300D0CDB701
:101A5000DEB7182F22E030E0AE014F5F5F4F60E24B
:101A600070E00E943B0AE980FA80FE24EF24FE2405
:101A700022E030E0AE014F5F5F4F60E270E0812F07
:101A80000E943B0A89819A81982789279827E8161E
:101A9000F90689F487E0189FF0011124EE51FD4FFB
:101AA000F582E482C7010F900F90DF91CF911F91D3
:101AB000FF90EF9008957C01DBCF1F93CF93DF93CE
:101AC000182F80E591E00E942801812F0E94210DAE
:101AD000EC0163E070E0812F0E94D908873121F08A
:101AE0008C3111F0D0E0C0E0CE01DF91CF911F9199
:101AF0000895CF93DF93EC018C85843060F40E94CD
:101B00002B09873111F08C3131F48C850E945D0DE9
:101B10008115984088F3DF91CF910895FC01848569
:101B2000843010F40C945D0D90E080E008959F9255
:101B3000AF92BF92CF92DF92EF92FF920F931F93DB
:101B4000CF93DF938C015B01942EE52EFC01C688B8
:101B5000D788F08C80E591E00E9428018F2D0E94AB
:101B6000210DC92DDE2D8C179D0708F4EC019E0177
:101B7000A501B6018F2D0E94AC0CF80186899789CA
:101B80008C0F9D1F978B868BCE01DF91CF911F917C
:101B90000F91FF90EF90DF90CF90BF90AF909F900C
:101BA00008958F929F92AF92BF92CF92DF92EF9261
:101BB000FF920F931F93CF936C015B018A01FC018D
:101BC000C485C430F0F57A014130584018F0E12C5A
:101BD00088E0F82E80E591E00E9428018C2F0E9479
:101BE000210D4C0163E070E08C2F0E94D9088731F1
:101BF00011F08C3149F58E149F0460F380E591E07B
:101C00000E9428019701A50170E060E08C2F0E94DE
:101C1000AC0C60E270E08C2F0E94F60862E070E08D
:101C20008C2F0E94D90884FD17C063E070E08C2FD0
:101C30000E94D90881110BC081E090E0F6019383E6
:101C4000828310E000E010C0F12CE12CD7CF80E5BA
:101C500091E00E942801E2CF40E162E070E08C2F29
:101C60000E941206EF2841F3C801CF911F910F91F6
:101C7000FF90EF90DF90CF90BF90AF909F908F90AC
:101C80000895FF920F931F93CF93DF9300D0CDB7AA
:101C9000DEB7F82E22E030E0AE014F5F5F4F66E224
:101CA00070E00E943B0A09811A8110270127102742
:101CB00022E030E0AE014F5F5F4F66E270E08F2DB3
:101CC0000E943B0A89819A819827892798270817BB
:101CD000190749F4C8010F900F90DF91CF911F9120
:101CE0000F91FF9008958C01E3CF1F93CF93DF9363
:101CF000182F87E0189FE0011124CE51DD4F888115
:101D00009981009761F480E591E00E942801812F7C
:101D10000E94410E2E81821B910999838883DF9155
:101D2000CF911F910895FC018485843010F40C94A8
:101D3000750E90E080E008954F925F927F928F92AF
:101D40009F92AF92BF92CF92DF92EF92FF920F934A
:101D50001F93CF93DF9300D0CDB7DEB7782E6B0102
:101D60004A01A82EB12C27E0829FC0011124FC015A
:101D7000EE51FD4F7F010081118180E591E00E94CD
:101D800028010815190554F4872D0E94410EF7010A
:101D900026818C01021B1109118300830115110595
:101DA00029F563E070E0872D0E94D908843159F04D
:101DB000882349F001E010E08C3111F410E000E0DC
:101DC000119501951109C8010F900F90DF91CF91E6
:101DD0001F910F91FF90EF90DF90CF90BF90AF9049
:101DE0009F908F907F905F904F90089580169106FE
:101DF0000CF4840187E08A9DF0018B9DF00D112485
:101E0000EE51FD4FE280F380C114D10451F127015E
:101E1000F7E05F22872D0E94C905840D951D209152
:101E2000FE02273309F453C09801240D351D2130DB
:101E3000384008F44CC020E038E049018418950887
:101E4000A401B6010E944E082601480C591C6801E5
:101E5000C818D908872D0E94C905A601B2010E94A1
:101E60004E08E00EF11E87E08A9DF0018B9DF00D7B
:101E70001124EE51FD4FF382E28220813181201B3B
:101E8000310B318320838681800F912F911D8A3FF2
:101E9000910510F4232BF1F487E08A9DF0018B9DCE
:101EA000F00D1124EE51FD4F1682F982EA8222E0F4
:101EB00030E0AE014F5F5F4F68E270E0872D0E9417
:101EC000D70560E470E0872D0E94F6087CCFA8015A
:101ED000B601C5CF868377CFCF93DF93FC01218DE9
:101EE000328D2115310529F48FEF9FEFDF91CF91CE
:101EF0000895EC01808D4217530708F0A9010E9454
:101F00009C0E1816190684F7298D3A8D281B390B5B
:101F10003A8F298FEBCF0F931F93CF93DF931F92AD
:101F2000CDB7DEB7FC01218D328D232B41F48FEF2D
:101F30009FEF0F90DF91CF911F910F9108958C012A
:101F400041E050E0BE016F5F7F4FFC01808D0E9439
:101F50009C0E181619065CF7F801818D928D019779
:101F6000928F818F898190E0E4CFCF93DF931F928E
:101F7000CDB7DEB741E050E0BE016F5F7F4FFC019F
:101F800084850E949C0E1816190634F4898190E00D
:101F90000F90DF91CF9108958FEF9FEFF9CFFC0164
:101FA0008485843010F40C949C0E90E080E00895B9
:101FB0000F931F93CF93DF9300D0CDB7DEB7FC0113
:101FC00024852430E0F48C0180E591E00E94280112
:101FD00022E030E0AE014F5F5F4F60E170E0F8015A
:101FE00084850E943B0A89819A81982789279827AE
:101FF0000F900F90DF91CF911F910F91089590E076
:1020000080E0F6CF0F931F93CF93DF9300D0CDB72F
:10201000DEB7FC0124852430E0F48C0180E591E0FA
:102020000E94280122E030E0AE014F5F5F4F64E084
:1020300070E0F80184850E943B0A89819A81982783
:10204000892798270F900F90DF91CF911F910F91C3
:10205000089590E080E0F6CFDC018DE991E08D936A
:102060009D9384E0FB0101900D928A95E1F708951C
:10207000EF92FF920F931F93CF93DF9300D000D086
:10208000CDB7DEB78C017B01FB0184858430A8F0DD
:102090008DE991E0F801918380831282138214828A
:1020A0001582C8010F900F900F900F90DF91CF9184
:1020B0001F910F91FF90EF90089580E591E00E94AD
:1020C000280124E030E0AE014F5F5F4F6CE070E02C
:1020D000F70184850E943B0ABE016F5F7F4FC801F4
:1020E0000E942C10DECF0F931F93CF93DF93CDB7B9
:1020F000DEB728970FB6F894DEBF0FBECDBF8C01B8
:10210000D80159964D915C915A974115510551F05E
:10211000ED91FC91048CF58DE02D70E060E0C8013C
:102120000995EECFF801808D0E94750E892BB1F1D3
:1021300048E050E0BE016F5F7F4FD80158968C9108
:102140000E949C0E18161906F4F4D801509684E0EB
:10215000FE01319601900D928A95E1F78D8190E014
:10216000982F88272E81820F911DF801958B848BE3
:102170008F81282F30E0322F22278885820F932FDE
:10218000911D928F818F28960FB6F894DEBF0FBEF7
:10219000CDBFDF91CF911F910F91089590E080E026
:1021A000F2CF4F925F926F927F928F929F92AF92F7
:1021B000BF92CF92DF92EF92FF920F931F93CF9334
:1021C000DF93CDB7DEB763970FB6F894DEBF0FBECF
:1021D000CDBF7C016B013A01FB0120E090E080E083
:1021E0006AE03191332309F461C040ED430F4A3076
:1021F00008F04DC0689FA001699F500D1124CA01CD
:10220000C097830F911D37FD9A958F3F910549F334
:1022100040F3F701428153816481758180910D0300
:1022200090910E03A0910F03B09110034817590726
:102230006A077B0709F40DC28701085F1F4F0E94E0
:1022400089026F7077277C5FC8010E94870C8130FC
:1022500009F004C28DE991E09A838983F7018281B4
:102260009381A481B5818B839C83AD83BE8345E339
:1022700050E0BE016F5F7F4FC8010E946E06892B40
:10228000A9F5D12CC12CC8010E941E0917C03E32ED
:1022900009F0BFCF233009F4BCCFD301A20FB11D89
:1022A00012968C932F5F90E080E09BCF233009F053
:1022B000B0CFF3018583CC24C394D12CC60163969F
:1022C0000FB6F894DEBF0FBECDBFDF91CF911F9147
:1022D0000F91FF90EF90DF90CF90BF90AF909F90C5
:1022E0008F907F906F905F904F9008950E94890229
:1022F000F7017783668342E050E0B7016A5F7F4F62
:10230000C8010E94970D81E090E09A83898342E0A2
:1023100050E0BE016F5F7F4FC8010E94970D80E0C3
:1023200091E09A83898342E050E0BE016F5F7F4F66
:10233000C8010E94970D1A82198242E050E0BE0146
:102340006F5F7F4FC8010E94970D42E050E0BE01D1
:102350006F5F7F4FC8010E94970D42E050E0BE01C1
:102360006F5F7F4FC8010E94970D5601F601808173
:10237000882301F16501F60181912F01882311F075
:102380008E32B1F446018A189B081814190474F4AB
:102390008D8641E050E0BE01635F7F4FC8010E941F
:1023A000970DA401B501C8010E94970D5201DECF1F
:1023B0006201E1CF1D8641E050E0BE01635F7F4FC7
:1023C000C8010E94970DC12CDD24D394DA82C98202
:1023D00042E050E0BE016F5F7F4FC8010E94970D41
:1023E000DA82C98242E050E0BE016F5F7F4FC801D0
:1023F0000E94970DC8010E949209892B09F441CFD0
:10240000F3E0AF2EB12C230122E0420E511CD4C0C8
:10241000F7014281538164817581808D918DA28DF8
:10242000B38D481759076A077B0709F008C1848DE7
:10243000958DC59709F003C181A192A15DEFC52ECD
:10244000DD24DA940C970CF4ADC04CE050E0BE01F2
:102450006F5F7F4FC8010E946C0F8B819C81982712
:10246000892798279A8B898BF70146815781298183
:102470003A814217530709F0E7C097FFE5C08F7014
:1024800092703BEFC32EDD24DA94892B09F08AC0C9
:102490006F8078847624672476242AEFC22EDD2488
:1024A000DA946114710409F47DC0D12CC12C8D81A2
:1024B0009E81982789279827C816D906F8F441E005
:1024C00050E0BE01635F7F4FC8010E946C0F4D85D5
:1024D000442331F050E070E060E0C8010E946C0FCE
:1024E0008D858111ECCF44E050E070E060E0C801E0
:1024F0000E946C0FFFEFCF1ADF0AD9CF912C812CED
:1025000041E050E0BE016D5E7F4FC8010E946C0F3C
:102510004B89842F807C09F06CC0442331F050E05B
:1025200070E060E0C8010E946C0F8B898111E8CFD8
:1025300042E050E0BE01615F7F4FC8010E946C0F16
:1025400042E050E0BE01635F7F4FC8010E946C0F04
:1025500044E050E070E060E0C8010E946C0F42E08F
:1025600050E0BE016F5E7F4FC8010E946C0F8F85E7
:10257000988949895A898115914009F043C0CD84D1
:10258000DE84DC24CD24DC2481E0C816D104D1F51E
:102590004115544009F04AC044E050E0B201C8017E
:1025A0000E946C0F21E0A21AB10809F46CCEFFEF73
:1025B000CF16DF0609F067CE0E9489023B014C016D
:1025C000C8010E947310181619060CF421CF0E943E
:1025D0008902661977098809990969387341810563
:1025E000910548F562E370E080E090E00E945702B8
:1025F000E7CF41E050E070E060E0C8010E946C0F5E
:102600001B8A93CF54274527542770E060E0C80108
:102610000E946C0FFFEF8F1A9F0A6814790409F06B
:102620006FCF96EFC92EDD24DA94BCCFE7EFCE2E24
:10263000DD24DA94B7CFCC24CA94DC2CB3CF6EEF70
:10264000C62EDD24DA94AECF4CEFC42EDD24DA940E
:10265000A9CF8EEFC82EDD24DA9430CED12CC12C38
:102660002DCECF92DF92EF92FF920F931F93CF93D5
:10267000DF93CDB7DEB7AF970FB6F894DEBF0FBECE
:10268000CDBF7C016A010DE911E01A8309831C8624
:102690001B8688EE93E0A0E0B0E08D879E87AF8731
:1026A000B88B8EE291E09A878987188F0F8B198EED
:1026B0001A8E1B8E1C8E84E089A31BA70AA71CA65A
:1026C0001DA61EA61FA68091310390913203A091F2
:1026D0003303B09134038EA39FA3A8A7B9A78B831C
:1026E0009C83AD83BE8318861F82AE01465D5F4F1B
:1026F000CE0101960E94D11081309105B1F4D7012D
:10270000ED91FC910488F589E02D1DA30CA38CA507
:102710009DA5AEA5BFA58EA39FA3A8A7B9A7A601F7
:10272000BE016C5D7F4FC7010995AF960FB6F89457
:10273000DEBF0FBECDBFDF91CF911F910F91FF90F4
:10274000EF90DF90CF900895CF92DF92EF92FF92BB
:102750000F931F93CF93DF93CDB7DEB7AF970FB62D
:10276000F894DEBF0FBECDBF8C016B017A018DE9FD
:1027700091E09A8389831B821C821D821E821C86A3
:102780001B8648EE53E060E070E04D875E876F8700
:10279000788B2EE231E03A872987988F8F8B198EBC
:1027A0001A8E1B8E1C8E24E029A39BA78AA71CA629
:1027B0001DA61EA61FA6D8011C968C91843060F41D
:1027C0000E942B09882321F0F80184850E940609C4
:1027D00084E0D8011C968C93809131039091320350
:1027E000A0913303B09134038EA39FA3A8A7B9A7E8
:1027F0008B839C83AD83BE8318861F82AE01465DAA
:102800005F4FB601CE0101960E94D1100097C1F032
:10281000D801ED91FC910684F785E02D8DE991E0DA
:102820009DA38CA38CA59DA5AEA5BFA58EA39FA39C
:10283000A8A7B9A7A701BE016C5D7F4FC801099584
:10284000AF960FB6F894DEBF0FBECDBFDF91CF912C
:102850001F910F91FF90EF90DF90CF9008950E940D
:102860009E318F929F92AF92BF92EF92FF920F9301
:102870001F93CF93DF93CDB7DEB7A1970FB6F89430
:10288000DEBF0FBECDBF7C01FA01CB0119A2223001
:1028900008F42AE08E010F5D1F4F822E912CB12C7F
:1028A000A12CBF01A50194010E94E42CF901CA01E9
:1028B0006A3074F5605DD8016E938D01232B242B53
:1028C000252B79F790E080E0109789F0FD010190C9
:1028D0000020E9F73197AF014A1B5B0BD701ED915F
:1028E000FC910280F381E02DB801C7010995A19602
:1028F0000FB6F894DEBF0FBECDBFDF91CF911F9111
:102900000F91FF90EF90BF90AF909F908F900895A0
:10291000695CD1CF8F929F92AF92BF92CF92DF929C
:10292000EF92FF920F931F93CF93DF937C01EB0104
:102930006C0182E0C80ED11C4701E5E08E0E911CAF
:1029400010E000E0F60141916F0150E070E060E0BE
:102950002AE0CE010E9431145C01E881F9810190E6
:10296000F081E02D6EE2CE0109958A0D9B1D080FC6
:10297000191FC814D90431F7F701458150E070E000
:1029800060E02AE0CE010E943114800F911FDF9198
:10299000CF911F910F91FF90EF90DF90CF90BF905C
:1029A000AF909F908F900895FC0124813581232B57
:1029B00039F421E0FB018081882349F020E007C041
:1029C000808191810E94D23121E0892BB9F7822F39
:1029D0000895FC0124813581FB0144815581241730
:1029E0003507E1F4FC0180819181FB0160817181F7
:1029F0000097D1F061157105A1F4232BC1F0FC0102
:102A0000808190E008C0232B91F0FB01808190E051
:102A100091958195910921E0892B09F020E0822F81
:102A200008950E94D231F7CF6115710561F721E059
:102A3000F6CF7F928F929F92AF92BF92CF92DF920A
:102A4000EF92FF920F931F93CF93DF93CDB7DEB733
:102A5000A6970FB6F894DEBF0FBECDBF8C01762EC1
:102A6000942E852E20E2A22ECE0101967C01DC015F
:102A7000EA2D1D92EA95E9F76801F3E4CF0ED11C27
:102A80008DE991E09AA389A38FEF8BA38CA38DA3EB
:102A90008EA343E450E0BE016F5D7F4FC6010E94EC
:102AA0006E06019609F4BFC081E089838A8386E0BF
:102AB000B82EBB821C82D80114966D917D918D91A8
:102AC0009C9117970E94152D6D837E838F83988725
:102AD00089869A8680E890E09C878B874CE150E05D
:102AE000B701C6010E94970DFE0137968AE1DF010A
:102AF0001D928A95E9F74801B8E08B0E911CF4010C
:102B0000D70101900D92BA94E1F740E150E0B7018E
:102B1000C6010E94970DF7011192AA94E9F796E079
:102B2000A92EB12C40E250E0B701C6010E94970DDA
:102B3000F1E0AF1AB108B1F783E6898392E89A838E
:102B400093E59B838C8385E38D8381E08E837F82F5
:102B50009DE3988797E099878A8786E0F401DE01F4
:102B60001B9601900D928A95E1F78CE0898B8A8BF8
:102B70006FE971E0CE0143960E94DB31D8011B96CC
:102B80006C91CE0149960E942B01F8016485CE011B
:102B90004B960E942B01D8011D966C91CE014D964B
:102BA0000E942B014EE150E0B701C6010E94970D33
:102BB000B3E07B121EC082E3898384E08A83F8013C
:102BC00096859B8397859C8390899D8391899E831D
:102BD00096E39F838887828D8987838D8A87848DFA
:102BE0008B87858D8C874CE050E0B701C6010E9431
:102BF000970D87E3898386E08A8391E09B8393E046
:102C00009C838D838FE08E838AE38F838BE3888719
:102C10008FEF898749E050E0B701C6010E94970D08
:102C2000C6010E949209A6960FB6F894DEBF0FBEA9
:102C3000CDBFDF91CF911F910F91FF90EF90DF906B
:102C4000CF90BF90AF909F908F907F9008950F93FB
:102C50001F93CF93DF93EC0188819981009759F0FE
:102C60002A813B812617370730F081E0DF91CF9131
:102C70001F910F9108958B016F5F7F4F0E94E1308C
:102C8000009759F0998388831B830A832C813D81A7
:102C9000232B59F7FC011082E8CF80E0E7CFEF92B9
:102CA000FF920F931F93CF93DF936115710541F44A
:102CB00080E0DF91CF911F910F91FF90EF900895E9
:102CC00041155105B1F07B01EC010C811D81040F10
:102CD000151FB8010E942716882351F328813981D6
:102CE0008C819D81B701820F931F0E94DB311D8370
:102CF0000C8381E0DECFCF93DF93EC018881998153
:102D0000009711F00E945830198218821D821C828F
:102D10001B821A82DF91CF910895CF93DF93EC014C
:102D2000FB0101900020E9F73197AF01461B570BDB
:102D30000E944F16811103C0CE010E947B16CE0166
:102D4000DF91CF910895CF93DF93EC01FB01448194
:102D50005581608171810E944F16811103C0CE019F
:102D60000E947B16CE01DF91CF910895EF92FF92E2
:102D70000F931F93CF93DF93EC017B018A01BA017C
:102D80000E94271681110BC0CE010E947B16CE0136
:102D9000DF91CF911F910F91FF90EF9008951D83C8
:102DA0000C83B701888199810E94DB31F0CFFB0150
:102DB00001900020E9F73197AF01461B570B0C94A7
:102DC000B6160F931F93CF93DF93CDB7DEB7A297BD
:102DD0000FB6F894DEBF0FBECDBF8C01CB01BA0198
:102DE000F8011182108213821282158214822AE065
:102DF000AE014F5F5F4F0E94102BBE016F5F7F4F90
:102E0000C8010E94D716A2960FB6F894DEBF0FBE77
:102E1000CDBFDF91CF911F910F9108950F931F9315
:102E2000CF93DF93CDB7DEB729970FB6F894DEBF07
:102E30000FBECDBF8C01862FF80111821082138244
:102E40001282158214824AE0BE016F5F7F4F90E0CC
:102E50000E94562BBE016F5F7F4FC8010E94D7169C
:102E600029960FB6F894DEBF0FBECDBFDF91CF918C
:102E70001F910F9108950F931F93CF93DF93CDB7B9
:102E8000DEB762970FB6F894DEBF0FBECDBF8C01E0
:102E9000CB01F801118210821382128215821482F2
:102EA0004AE0BE016F5F7F4F0E94052BBE016F5F3E
:102EB0007F4FC8010E94D71662960FB6F894DEBF06
:102EC0000FBECDBFDF91CF911F910F910895CF938A
:102ED000DF93EC01FB018617970749F06081718150
:102EE0006115710541F0448155810E94B616CE01ED
:102EF000DF91CF9108950E947B16F9CFFC011182DA
:102F0000108213821282158214820C946717FC01BE
:102F1000118210821382128215821482FB010190A9
:102F20000020E9F73197AF01461B570B0C94B616FA
:102F3000FC0180819181009711F00C945830089524
:102F4000AF92BF92CF92DF92EF92FF920F931F93B7
:102F5000CF93DF9300D000D000D0CDB7DEB77C0197
:102F60008B018091B5039091B603892BB9F061EB89
:102F700073E0CE0101960E947E1766EA71E0CE01F1
:102F800001960E948D16B7010E94A316BC01C701CD
:102F90000E946717CE0101960E949817F8010081E0
:102FA0001181F701C080D180F12CE12C01151105B0
:102FB00041F060916F0370917003C8010E94FA2A7A
:102FC0007C010E94F0008823C1F1A0906F03B090B3
:102FD0007003B501C6010E94FA2A9701295F3F4F8D
:102FE000820F931FA816B906C8F160916D03709106
:102FF0006E0345E050E0C6010E94CE00A8014E0DD0
:103000005F1DF8018C010E1B1F0BD801AE0FBF1FF7
:1030100060916D0370916E03E417F50729F021911B
:10302000A60FB71F2C93F1CFF5E0EF1AF108A70117
:10303000480F591F81E30E94950226960FB6F89417
:10304000DEBF0FBECDBFDF91CF911F910F91FF90DB
:10305000EF90DF90CF90BF90AF90089580E0EDCFDC
:10306000CF92DF92EF92FF92CF93DF93CDB7DEB78F
:10307000E6970FB6F894DEBF0FBECDBF8DE991E0A5
:103080009AAB89AB1BAA1CAA1DAA1EAA80E591E0D7
:103090000E94280144E050E0BE016D5C7F4F8FE04C
:1030A00090E00E944E088BA99CA9ADA9BEA9892BCE
:1030B0008A2B8B2B09F466C18091C7039091C803BA
:1030C000892B09F45FC10E94F000882309F45AC1DA
:1030D00068EA71E0CE018B960E9487178091B70253
:1030E000882331F06CEA71E0CE018B960E94D716EE
:1030F000BE01655D7F4FCE0107960E947E176FEA85
:1031000071E0CE0101960E948717BE01695F7F4F73
:10311000CE0101960E94A017CE0101960E94981739
:10312000CE0107960E949817C090B902D090BA02BB
:10313000E090BB02F090BC0265EB71E0CE010D9611
:103140000E948717B701A601CE0101960E94E116E1
:10315000BE01635F7F4FCE0107960E947E17BE01BE
:103160006F5F7F4FCE0107960E94A017CE01079692
:103170000E949817CE0101960E949817CE010D96D5
:103180000E9498178DE991E098A38F8F19A21AA237
:103190001BA21CA280E591E00E94280144E050E0BF
:1031A000BE016F5D7F4F8FE090E00E944E086CA1E2
:1031B000CE0101960E940E176BA1CE0107960E94C8
:1031C0000E176AA1CE010D960E940E1769A1CE01BD
:1031D00049960E940E17BE01675E7F4FCE0143964F
:1031E0000E947E1766EC71E0CE0143960E948D1618
:1031F000BE01635F7F4F0E94A31666EC71E00E94E0
:103200008D16BE01695F7F4F0E94A31666EC71E0C8
:103210000E948D16BE016F5F7F4F0E94A316BC01F6
:10322000CE0185960E947E17CE0143960E94981784
:10323000CE0149960E949817CE010D960E949817CC
:10324000CE0107960E949817CE0101960E9498170A
:1032500068EC71E0CE0101960E948717BE016B5D9C
:103260007F4FCE0101960E94A017CE0101960E94C9
:103270009817CE0185960E9498176091CA027091A6
:10328000CB02CE0149960E943B176091C802709113
:10329000C902CE0143960E943B176091C60270910D
:1032A000C702CE010D960E943B174091C202509179
:1032B000C3026091C4027091C502CE0101960E94C2
:1032C000E116BE016F5F7F4FCE0107960E947E1709
:1032D00061ED71E0CE0107960E948D16BE01635F1D
:1032E0007F4F0E94A31664ED71E00E948D16BE010F
:1032F0006D5E7F4F0E94A31664ED71E00E948D16F3
:10330000BE01675E7F4F0E94A316BC01CE014F969F
:103310000E947E17CE0107960E949817CE01019653
:103320000E949817CE010D960E949817CE014396E1
:103330000E949817CE0149960E949817BE01615EBF
:103340007F4FCE0107960E947E1766ED71E0CE0199
:1033500001960E948717BE01695F7F4FCE010196DB
:103360000E94A017CE0101960E949817CE010796E1
:103370000E949817CE014F960E949817CE018B9607
:103380000E949817E6960FB6F894DEBF0FBECDBF29
:10339000DF91CF91FF90EF90DF90CF9008953F9213
:1033A0004F925F926F927F928F929F92AF92BF9255
:1033B000CF92DF92EF92FF920F931F93CF93DF9301
:1033C000CDB7DEB7EA970FB6F894DEBF0FBECDBF1C
:1033D0007C012A013B0169010E9489024B015C01C9
:1033E00087010D5B1F4FC8010E9473101816190644
:1033F0009CF00E948902681979098A099B0946167E
:1034000057066806790608F466C162E370E080E05A
:1034100090E00E945702E7CF42E250E0BE016F5FAA
:103420007F4FC8010E946C0F89818230D1F0312C0E
:10343000832DEA960FB6F894DEBF0FBECDBFDF91A5
:10344000CF911F910F91FF90EF90DF90CF90BF90A1
:10345000AF909F908F907F906F905F904F903F9034
:103460000895F801848995898334910501F76D8168
:103470007E818F8198850E94152D4B015C01F6019C
:1034800080829182A282B38246E050E0B701685FF9
:103490007F4FCE014D960E94A331892B41F6F70153
:1034A00080819181A281B38188169906AA06BB0604
:1034B00008F4BDCF84819581A681B78188159905CF
:1034C000AA05BB0508F4B3CF89899A89AB89BC8961
:1034D00086879787A08BB18B4EEC50E070E060E060
:1034E000C8010E946C0F312CC701829698AB8FA740
:1034F000F701B696FAABE9AB08969CAB8BAB6701CC
:103500009AE1C90ED11CBD96FEABEDABC701429648
:1035100098AF8FABFD97FAAFE9AF4701FEE18F0E91
:10352000911CF801818D928D181619060CF080CF30
:10353000C8010E948B0F8333910509F4B2C014F5C2
:103540008130910509F464C044F4892B51F3C8011A
:103550000E948B0FAC01552775C08330910509F48B
:1035600062C00697A1F7C8010E948B0FB82E44E0F5
:1035700050E0B401C8010E946C0FEB2DE450FF0B2A
:10358000AF0160C08A33910509F45FC084F58533CB
:103590009105B1F1C697D9F6C8010E948B0F5C0165
:1035A000B601CE0189960E942C108BA59CA5ADA5D5
:1035B000BEA5892B8A2B8B2BB1F0EDA9FEA94080EB
:1035C000518062807380B601CE0183960E942C10D8
:1035D0008DA19EA1AFA1B8A5A501481659066A06FE
:1035E0007B0609F0B8CF44E050E0B60118C08B3339
:1035F000910509F440C08F3F910509F492CFA7CF00
:10360000C8010E948B0FC8010E948B0F382E89CFF2
:10361000C8010E948B0F44E050E06FA978ADC8014B
:103620000E946C0F7ECFC8010E948B0FB82E44E021
:1036300050E069AD7AADC8010E946C0F8B2D8450AB
:10364000990BAC0170E060E0EACFC8010E948B0FDB
:1036500044E050E069A97AA9C8010E946C0FF70103
:1036600066A177A180A591A50E94152D66A377A3D9
:1036700080A791A756CFC8010E948B0F44E050E06D
:103680006BA97CA9C8010E946C0FF70162A573A504
:1036900084A595A50E94152D62A773A784A795A759
:1036A00040CFC8010E948B0F44E050E06FA578A97D
:1036B000C8010E946C0FF70162A173A184A195A1BA
:1036C0000E94152D62A373A384A395A366A777A771
:1036D00080AB91AB26CF33243A94AACE2F923F925F
:1036E0004F925F926F927F928F929F92AF92BF9212
:1036F000CF92DF92EF92FF920F931F93CF93DF93BE
:1037000000D000D000D0CDB7DEB78C010E947B2A5C
:103710002FEC37E040E050E00E947B2CDC01CB0135
:103720000196A11DB11DF80184839583A683B783FB
:1037300080839183A283B3835801F3E4AF0EB11C5D
:10374000C5010E941E0964E470E0C5010E94870C57
:10375000882309F445C10E9489022B013C014801DC
:1037600082E4880E911C48EEC42E43E0D42EE12C56
:10377000F12C52E0252E1E821D82D4018C918330C3
:10378000B1F1811166C0F80184819581A681B7816C
:103790000196A11DB11D84839583A683B7830E94E2
:1037A00089026419750986099709A70196010E9483
:1037B000E42CA90161E0C8010E94191581E0D4013F
:1037C0008C938D819E810197C1F20E9489026419B8
:1037D000750986099709D801D6962D913D914D918D
:1037E0005C91D997261737074807590720F6C50176
:1037F0000E941E09F80184819581A681B7810196F6
:10380000A11DB11D84839583A683B7830E9489027D
:10381000F801FE9660837183828393838D819E81FC
:1038200026960FB6F894DEBF0FBECDBFDF91CF91C5
:103830001F910F91FF90EF90DF90CF90BF90AF90CE
:103840009F908F907F906F905F904F903F902F90C0
:1038500008958430F1F4F80184819581A681B781BF
:103860000196A11DB11D84839583A683B7830E9411
:1038700089026419750986099709A70196010E94B2
:10388000E42CA90163E0C8010E941915D4012C920F
:1038900098CF813051F5F80142AD53AD64AD75ADAF
:1038A0009E012F5F3F4FC8010E94CF19382EF2E0D2
:1038B0008F1390C089819A81AB81BC81F801848388
:1038C0009583A683B7830E948902641975098609C6
:1038D0009709A70196010E94E42CA90163E0C801A1
:1038E0000E941915D4013C926CCF823009F069CF47
:1038F000F80142AD53AD64AD75AD9E012F5F3F4FF2
:10390000C8010E94CF19382EF5E08F135DC0E3E0A7
:10391000D401EC93F80182A193A1A4A1B5A1892BB4
:103920008A2B8B2B41F484E893E0A0E0B0E082A3E3
:1039300093A3A4A3B5A3F80186A197A1A0A5B1A5BF
:10394000892B8A2B8B2B61F482A193A1A4A1B5A111
:10395000B695A7959795879586A397A3A0A7B1A796
:10396000F80182A593A5A4A5B5A5892B8A2B8B2B3D
:10397000A9F482A193A1A4A1B5A1AC01BD0123E04A
:1039800076956795579547952A95D1F7841B950BA2
:10399000A60BB70B82A793A7A4A7B5A7F80186A18A
:1039A00097A1A0A5B1A586A797A7A0ABB1AB82A50B
:1039B00093A5A4A5B5A582AB93ABA4ABB5AB81E0B1
:1039C00090E09E838D83FDCE96E0891303C0D401E1
:1039D0001C92F7CEBFEF3B12F4CEF4011082F1CE71
:1039E0001E821D821BCFAF92BF92CF92DF92EF92C9
:1039F000FF920F931F93CF93DF93CDB7DEB7AA97B4
:103A00000FB6F894DEBF0FBECDBF8C015B016A011B
:103A100063ED71E0CE0107960E94871763ED71E0B8
:103A2000CE010D960E94871763ED71E0CE0143969B
:103A30000E9487177501CA0CDB1CEC14FD0479F099
:103A4000F70181917F0189831A8241E050E0BE0134
:103A50006F5F7F4FCE0107960E944F16EECF011584
:103A6000110509F4ABC0B801CE010D960E94D7161E
:103A700061EB73E0CE0101960E947E1763EE71E068
:103A8000CE0101960E948D16BC01CE0149960E947E
:103A90007E17CE0101960E94981761EB73E0CE016C
:103AA00001960E947E1768EE71E0CE0101960E9499
:103AB0008D16BC01CE014F960E947E17CE01019655
:103AC0000E94981761EB73E0CE0101960E947E1769
:103AD00060EF71E0CE0101960E948D16BC01CE010F
:103AE00085960E947E17CE0101960E949817BE010E
:103AF000675E7F4FCE010D960E94E914882309F47A
:103B000078C06CEA71E0CE0107960E94D41481114E
:103B100009C067EF71E0CE0107960E94D414882394
:103B200009F451C010920B0110920C0110920D017A
:103B300081E08093B7028093B6022091B902309160
:103B4000BA024091BB025091BC02AFEFB0E00E94BC
:103B50009A2C24E630E040E050E00E947B2C209339
:103B60000E0120930F010E943018CE0185960E940D
:103B70009817CE014F960E949817CE0149960E9441
:103B80009817CE0143960E949817CE010D960E9479
:103B90009817CE0107960E949817AA960FB6F89428
:103BA000DEBF0FBECDBFDF91CF911F910F91FF9070
:103BB000EF90DF90CF90BF90AF900895CE010D961B
:103BC0000E947B1655CF68EA71E0CE0107960E94ED
:103BD000D414811109C067E072E0CE0107960E94FB
:103BE000D414882309F4BFCF1092B7021092B60202
:103BF000BACFBE01615E7F4FCE010D960E94E914DF
:103C00008823A9F18F819885009769F10E94D32AB2
:103C1000653608F0A8CF6B017C01DD24EE24FF247B
:103C2000AFEFB0E0A70196010E949A2C24E630E0A5
:103C300040E050E00E947B2C20930E0120930F0166
:103C4000F894C092A603D092A703E092A803F09242
:103C5000A9037894C092B902D092BA02E092BB0252
:103C6000F092BC0280CF60E070E0CB01D4CFBE0107
:103C70006B5D7F4FCE010D960E94E914882309F4F5
:103C800072CF0E94DB1E1F920F920FB60F9211246B
:103C90002F933F938F939F93AF93BF938091DA02BB
:103CA0009091DB02A091DC02B091DD023091D9024B
:103CB00026E0230F2D3758F50296A11DB11D209344
:103CC000D9028093DA029093DB02A093DC02B093D6
:103CD000DD028091DE029091DF02A091E002B091BE
:103CE000E1020196A11DB11D8093DE029093DF02D7
:103CF000A093E002B093E102BF91AF919F918F91A9
:103D00003F912F910F900FBE0F901F90189529E8AB
:103D1000230F0396A11DB11DD2CF1F920F920FB694
:103D20000F9211242F933F934F935F936F937F9341
:103D30008F939F93AF93BF93EF93FF93E091020113
:103D4000F09103010995FF91EF91BF91AF919F9180
:103D50008F917F916F915F914F913F912F910F9034
:103D60000FBE0F901F9018951F920F920FB60F92D3
:103D700011242F933F934F935F936F937F938F9370
:103D80009F93AF93BF93EF93FF93E0910001F09166
:103D900001010995FF91EF91BF91AF919F918F9193
:103DA0007F916F915F914F913F912F910F900FBE37
:103DB0000F901F90189561E070E080E090E00E9405
:103DC0005702F9CF0F931F93CF93DF938DE991E0C3
:103DD000909300038093FF0210920103109202035C
:103DE000109203031092040390930603809305033B
:103DF00010920703109208031092090310920A030D
:103E000090930C0380930B0310920D0310920E03FA
:103E100010920F03109210039093120380931103DA
:103E200010921303109214031092150310921603AC
:103E300090931803809317031092190310921A039A
:103E400010921B0310921C0390931E0380931D037A
:103E500010921F031092200310922103109222034C
:103E6000909324038093230310922503109226033A
:103E7000109227031092280390932A03809329031A
:103E800010922B0310922C0310922D0310922E03EC
:103E900090933603809335031092370310923803C2
:103EA0001092390310923A039093300380932F03BA
:103EB00010923103109232031092330310923403A4
:103EC0009093CA038093C9031092CB031092CC0342
:103ED0001092CD031092CE0369EF71E083EC93E072
:103EE0000E94871769E072E08DEB93E00E948717CC
:103EF00064E172E087EB93E00E9487176DE172E066
:103F000081EB93E00E94871763E372E08BEA93E012
:103F10000E94871762E087E00E94990162E08EE0CC
:103F20000E949901E7E3F1E0E491F0E0EE0FFF1F5A
:103F3000EA5DFE4FA591B491B093A003A0939F03B7
:103F4000E9E1F1E044914093A303EEE3F1E0E49171
:103F5000F0E0EE0FFF1FEA5DFE4FC591D491D093C4
:103F6000A203C093A103E0E2F1E0E491E093A40393
:103F70001092A6031092A7031092A8031092A9030F
:103F80002CE93FE0C9010197F1F79C91842F892327
:103F900091E009F490E08881E82309F09260909321
:103FA000A5031092AA03109293031092920388EE35
:103FB00093E0A0E0B0E08093940390939503A093E6
:103FC0009603B09397038FE691E0909391038093CB
:103FD000900384E080939C0388EE93E090939E038B
:103FE00080939D0310926A031092690383E691E027
:103FF00090936803809367038DE991E09093830326
:10400000809382031092840310928503109286039A
:10401000109287038FEF9FEF90938F0380938E030F
:1040200080E993E090936C0380936B0310928D036F
:1040300010928C0380E091E00E94BC2F90936E035D
:1040400080936D0380E091E09093700380936F0301
:104050008FE090E0909372038093710390937403C8
:1040600080937303109257031092580310925903D0
:1040700010925A030AE010E010935C0300935B0374
:1040800010925D03CBE5D1E0D0935603C093550366
:10409000109266030E948902609351037093520349
:1040A0008093530390935403109241031092420360
:1040B0001092430310924403109346030093450368
:1040C00010924703D0934003C0933F0310925003D4
:1040D000DF91CF911F910F910895CF93DF93CDB7CB
:1040E000DEB761970FB6F894DEBF0FBECDBF7894F0
:1040F00084B5826084BD84B5816084BD85B58260ED
:1041000085BD85B5816085BD80916E00816080939D
:104110006E00109281008091810082608093810006
:104120008091810081608093810080918000816016
:10413000809380008091B10084608093B100809171
:10414000B00081608093B00080917A008460809399
:104150007A0080917A00826080937A0080917A0060
:104160008E7F80937A0080917A00806880937A00B5
:104170001092C10061E08FE00E94990161E080E14E
:104180000E94990161E081E10E94990160E08FE065
:104190000E946B0160E080E10E946B0160E081E1C0
:1041A0000E946B0168EE73E080E090E00E9457028D
:1041B00082E00E946B0768EE73E080E090E00E946E
:1041C000570281E00E946B0768EE73E080E090E0A8
:1041D0000E94570280E00E946B0768EE73E080E067
:1041E00090E00E94570283E00E946B0761E084E048
:1041F0000E94990161E084E00E946B0160E084E02C
:104200000E946B0160E273E080E090E00E94570240
:1042100061E084E00E946B0160E273E080E090E086
:104220000E9457028091A80281112AC01092900228
:1042300010928F0288EE93E0A0E0B0E080939102AC
:1042400090939202A0939302B09394028EE291E035
:1042500090938E0280938D028DE991E090939C0261
:1042600080939B0210929D0210929E0210929F02D8
:104270001092A00284E08093A50281E08093A802BE
:104280008AE492E09093B1028093B0028091490257
:104290008111ADC060E372E080E090E00E945702BF
:1042A000DFB6F8940AE311E09CE1E92E91E0F92EE3
:1042B00080914702811125C0F8018491F701949102
:1042C000E82FF0E0EE0FFF1FE651FF4FA591B491EC
:1042D0008C91982321F461E08AE00E946B0161E0F7
:1042E0008AE00E9499018CB580618CBD8CB5806498
:1042F0008CBD61E08DE00E94990161E08BE00E943D
:104300009901809147028F5F80934702DFBEF801D9
:104310000491E02FF0E0EE0FFF1FEC50FF4F85916E
:1043200094919093460280934502F701E490E092C5
:10433000440261E08AE00E9499010E94EA0480E55B
:1043400091E00E94280184E38093FE0280E80E94AD
:10435000B6050E94D609882309F45AC288E00E9453
:10436000B6050E94C309883009F052C280E10E945C
:10437000B6050E94C309803109F04AC280E00E945C
:10438000B6050E94C309182F811142C241E050E0D6
:10439000BE016F5F7F4F8FE190E00E944E088981E0
:1043A000833009F035C280E48093480242E06EE138
:1043B00070E0812F0E94120642E06FE170E0812FD1
:1043C0000E9412061F5F143089F740E06EE170E032
:1043D000812F0E94120640E06FE170E0812F0E9461
:1043E00012061F5F183089F781E08093490280E54B
:1043F00091E00E94280146E050E064E071E089E02D
:1044000090E00E9406058DE991E09A8389831B82E2
:104410001C821D821E82CE0103960E946606809138
:10442000B0029091B102DC0192961D921D921D92F4
:104430001C929597FC0116A217A210A611A69A9697
:104440001D921D921D921C929D9740E65AEE60E0CF
:1044500070E046AB57AB60AF71AF40EA5FE060E041
:1044600070E0DA964D935D936D937C93DD973E9665
:1044700024E1DF011D922A95E9F726E0E4E0F1E06E
:10448000DC01189601900D922A95E1F7FC01EE5B94
:10449000FF4F10820E946E1B8130910509F042C2CD
:1044A00080E591E00E9428010091B0021091B102D4
:1044B000B801625F7F4FCE0101960E942C10CE01A1
:1044C00003960E946606B8016A5E7F4FCE01019690
:1044D0000E942C1044E050E0BE016D5F7F4F81E0F0
:1044E00090E00E940605B8016E5E7F4FCE010196F6
:1044F0000E942C1044E050E0BE016D5F7F4F85E0CC
:1045000090E00E940605B801625E7F4FCE010196E1
:104510000E942C108B819C81AD81BE8180933103E0
:1045200090933203A0933303B09334030E9432027A
:104530007F73809111019091120168277927709300
:1045400012016093110162E088E00E94990161E02C
:1045500088E00E946B0188E08093660385E593E024
:104560000E94F20605E010E010935C0300935B03E9
:1045700080915D0381708093B80262E081E10E94C6
:10458000990161E081E10E946B0181E18093500318
:104590008FE393E00E94F2061093460300934503D5
:1045A00061E083E00E94990161E085E00E94990149
:1045B00061E086E00E9499018CE19EE2AFEFB1E4F8
:1045C0008093B2029093B302A093B402B093B50269
:1045D00080910E0190E0B0E0A0E08093B90290934A
:1045E000BA02A093BB02B093BC028091C703909122
:1045F000C803892BA1F08091C3039091C4039093C9
:104600008903809388038BE597E090938B038093D5
:104610008A0383EF9CE1909381038093800381E080
:104620000E946B0788E199E20FB6F894A8958093F1
:1046300060000FBE90936000E090B002F090B10275
:10464000E114F10409F487C10E9489024B015C0165
:104650008701025C1F4FF80180819181A281B381A3
:10466000A5019401281B390B4A0B5B0BCA01B90148
:10467000683E33E0730781059105A0F128EE33E031
:1046800040E050E00E94E42C861A970AA80AB90A72
:10469000D8018D929D92AD92BC921397F70186A599
:1046A00097A5A0A9B1A949015A01880C991CAA1C77
:1046B000BB1C88159905AA05BB0508F037C116A6CD
:1046C00017A610AA11AAF70182A993A9A4A9B5A9AE
:1046D00088159905AA05BB0508F031C112AA13AACD
:1046E00014AA15AAF70186A597A5A0A9B1A9892B97
:1046F0008A2B8B2B09F02CC1EE5BFF4F808183301E
:1047000009F026C184E08083C7010E946E1B0196D8
:104710006C01F70182A993A9A4A9B5A9892B8A2BB9
:104720008B2BA1F4EE5BFF4F8081833011F0811160
:104730000DC01082F7013E9684E1DF011D928A953B
:10474000E9F7C7010E946E1B03966C01B2E0CB161D
:10475000D10429F0E4E0CE16D10409F046C080E58A
:1047600091E00E942801E090B002F090B102B70100
:10477000625F7F4FCE0101960E942C10CE010396FE
:104780000E946606B7016A5E7F4FCE0101960E94C5
:104790002C1044E050E0BE016D5F7F4F81E090E05F
:1047A0000E940605B7016E5E7F4FCE0101960E9402
:1047B0002C1044E050E0BE016D5F7F4F85E090E03B
:1047C0000E940605B701625E7F4FCE0101960E94EE
:1047D0002C108B819C81AD81BE818093310390939D
:1047E0003203A0933303B0933403F1E0CF16D10426
:1047F00029F023E0C216D10409F0ADC082E00E9486
:104800006B0768EE73E080E090E00E94570288C07A
:1048100087E38093FE0280E80E94B6050E94D609D5
:10482000882329F188E00E94B6050E94C3098830D8
:10483000F1F480E10E94B6050E94C309182F80316F
:10484000B1F480E00E94B6050E94C30981110FC037
:1048500041E050E0BE016F5F7F4F89E390E00E942E
:104860004E088981843019F410934802BDCD83E34A
:104870008093FE0280E80E94B6050E94D609882334
:1048800071F180E10E94B6050E94C309803139F5BB
:1048900082E10E94B6050E94C309823101F580E0E1
:1048A0000E94B6050E94C309811119C084E080935B
:1048B000480215E51F8741E050E0BE01615F7F4F70
:1048C0008BE190E00E9406051E8741E050E0BE01AA
:1048D000625F7F4F8AE190E00E94060585CD1092CD
:1048E000FE0288E199E20FB6F894A89580936000E3
:1048F0000FBE9093600081E00E946B0768EE73E04A
:1049000080E090E00E94570280E00E946B0768EE12
:1049100073E080E090E00E94570283E00E946B0702
:104920000E94DB1E892B09F00ECEDBCF821B930B7E
:10493000A40BB50B86A797A7A0ABB1ABC4CE821BC7
:10494000930BA40BB50B82AB93ABA4ABB5ABCACEA8
:10495000D12CC12CDECE8FE393E00E9406070E948B
:104960008902AB01BC018091510390915203A09147
:104970005303B09154030396A11DB11D84179507ED
:10498000A607B70708F092C0ABE0EA2EA1E0FA2E26
:10499000AEE0B1E0F70190818D91981708F098C2D0
:1049A0009F5F891708F493C2908331964EE051E0DF
:1049B0004E175F0781F780910A01843618F48F5FE4
:1049C00080930A0180910A01853618F08150809306
:1049D0000A018091B60270E060E0882309F16091DD
:1049E0000D0170E090E080E00E94822B2091B202E5
:1049F0003091B3024091B4025091B5020E948F2DC4
:104A00009B01AC0160E070E080E090E40E94372EF2
:104A100020E030E040E85FE30E94222D0E94012E5A
:104A200086E00E94D50104E511E0D801DD908D01FA
:104A30008091B70270E060E0882309F1F70160819E
:104A400070E090E080E00E94822B2091B2023091D1
:104A5000B3024091B4025091B5020E948F2D9B0188
:104A6000AC0160E070E080E090E40E94372E20E02E
:104A700030E040E85FE30E94222D0E94012E8D2D40
:104A80000E94D501FFEFEF1AFF0AF6E58F2EF1E045
:104A90009F2E8016910649F60E9489026093510369
:104AA00070935203809353039093540385E593E0EE
:104AB0000E94060710915D0311708091B802811762
:104AC00069F011110BC08091B702882309F40AC262
:104AD0001092B7021092B6020E9430181093B802DA
:104AE0008091AA03823008F009C2F8948FE993E01C
:104AF0000E948F07C090A603D090A703E090A80360
:104B0000F090A90378948091B9029091BA02A09193
:104B1000BB02B091BC028C159D05AE05BF0529F105
:104B2000C092B902D092BA02E092BB02F092BC02EB
:104B3000AFEFB0E0A70196010E949A2C24E630E086
:104B400040E050E00E947B2C20930E0120930F0147
:104B50000E9489026093BE027093BF028093C002DC
:104B60009093C10281E08093BD0225E6C216D10474
:104B7000E104F1040CF4C4C1F89484E690E0A0E0F0
:104B8000B0E08093A6039093A703A093A803B093EB
:104B9000A90378940E9489020091BE021091BF027D
:104BA0002091C0023091C102601B710B820B930BEC
:104BB000653F71408105910540F08091BD028823D9
:104BC00021F01092BD020E9430180E94F00088234C
:104BD00009F44FC00E9489026B017C01209171038E
:104BE00030917203A8EEB3E00E94062D00917B0382
:104BF00010917C0320917D0330917E034601570183
:104C0000801A910AA20AB30A9501840160177107FC
:104C100082079307B0F000917703109178032091F9
:104C2000790330917A0346015701801A910AA20A4A
:104C3000B30A95018401601771078207930708F092
:104C4000A4C180917F03882309F470C17CEFA72E53
:104C5000BB24BA94B0928F03A0928E0380916B0311
:104C600090916C03DC01ED91FC910488F589E02DB5
:104C700009950E9489024B015C018091D5029091B7
:104C8000D602A091D702B091D802A5019401281BA9
:104C9000390B4A0B5B0BDA01C90189399A43A1052B
:104CA000B10508F485C00E94F00081116FC04090EA
:104CB000B7035090B803C090BD03D090BE032090BE
:104CC000AB033090AC030E94F000811134C380919B
:104CD0006B0390916C03DC01ED91FC910688F789E0
:104CE000E02D0995882309F440C281E090E090937B
:104CF00076038093750387E0E3E2F1E0DE0111962D
:104D000001900D928A95E1F7DE01119685E090E021
:104D10002D91E0916D03F0916E03E80FF91F208350
:104D200001968C309105A1F782E0C114D10429F0DD
:104D300082E84114510409F082ECE0906D03F09098
:104D40006E03D7011C968C931C97809172031D965D
:104D50008C931D97809171031E968C9360906F03C6
:104D600070907003B301C1010E94FA2A419668163F
:104D7000790608F031C280916B0390916C03DC01DD
:104D8000ED91FC910488F589E02D09950E94F000D1
:104D9000882309F426C380E00E946B071092D40296
:104DA0008092D5029092D602A092D702B092D802F9
:104DB0000E9489026B017C018091D0029091D10206
:104DC000A091D202B091D30246015701881A990AE4
:104DD000AA0ABB0AD501C401813C944DA140B1058A
:104DE00050F00E943018C092D002D092D102E092CE
:104DF000D202F092D3020E94890228EE33E040E012
:104E000050E00E94E42C653F71408105910580F4DB
:104E10008091CE029091CF02892B51F481E090E0F5
:104E20009093CD028093CC029093CF028093CE02D8
:104E30000E94890228EE33E040E050E00E94E42C1A
:104E4000653F71408105910520F01092CF021092CC
:104E5000CE028091CC029091CD02019779F580919C
:104E6000CA029091CB0201969093CB028093CA0222
:104E70001092CD021092CC02CC9701F58091C8021D
:104E80009091C90201969093C9028093C802109232
:104E9000CB021092CA02CC9789F41092C9021092E8
:104EA000C8028091C6029091C7020196883191058F
:104EB00009F4A3C29093C7028093C602A89580E02C
:104EC00090E0892B09F4B8CB0E940000B5CB808319
:104ED0009081891708F069CD9150981708F064CD3A
:104EE000808363CD10920B0110920C0110920D0182
:104EF00081E08093B7028093B602EECDF894FACDAC
:104F00009DE0C916D104E104F1040CF043CEF894FD
:104F1000EDE08E2E912CA12CB12C8092A6039092C4
:104F2000A703A092A803B092A90333CEE0916D032A
:104F3000F0916E0380EC8083E0916D03F0916E033D
:104F4000118280916B0390916C0360916D0370915D
:104F50006E03DC01ED91FC910280F381E02D42E0D3
:104F600050E00995C0927703D0927803E0927903DC
:104F7000F0927A03C0927B03D0927C03E0927D038F
:104F8000F0927E0381E080937F0380916B03909188
:104F90006C03DC01ED91FC910084F185E02D099515
:104FA000892B09F466CECE0101960E9443034B0182
:104FB000672B09F4D7C0C0927B03D0927C03E092A8
:104FC0007D03F0927E03E0916D03F0916E0380818A
:104FD000807F803309F0A5C0809180039091810388
:104FE000892B09F446CE498150E0CA0102968E0F02
:104FF0009F1FDF01A40FB51F11966C90712C762CAA
:105000006624DC016C91660E711C4D5F5F4FBF0121
:10501000640F751FA3010E94B931E98180916D036E
:1050200090916E03860D971DE80FF92FF11D1282E6
:10503000A0916D03B0916E03298130E02901E2E077
:105040004E0E511C4A0E5B1E1C911670E09180039F
:10505000F0918103F98BE88B123009F04EC0C30147
:10506000820F931FFD01E80FF91F638170E0762F17
:1050700066272480260E372E311C4BEF5FEF421B34
:10508000530B46195709480D591DBC016B5F7F4FE3
:105090006A0F7B1FC201E889F9890995E0916D03C8
:1050A000F0916E0380E48083E0916D03F0916E03D4
:1050B0001183E0916D03F0916E033282E0916D03F4
:1050C000F0916E03238280916B0390916C03609149
:1050D0006D0370916E03DC01ED91FC910280F38110
:1050E000E02D44E050E00995C0927703D092780318
:1050F000E0927903F0927A03BCCD4DEF5FEF421B53
:10510000530B46195709480D591D2D5F3F4F620E2D
:10511000731EBD01660D771DC201E889F9890995E5
:10512000A8CD803CC9F480ED8083E0916D03F091BF
:105130006E03118280916B0390916C0360916D03FB
:1051400070916E03DC01ED91FC910280F381E02D02
:1051500042E050E009958DCD803D09F08ACD109256
:105160007F0387CD0E94F00084CD60918803709109
:10517000890380916B0390916C03DC01ED91FC91AC
:1051800040918A0350918B036115710571F000887D
:10519000F189E02D0995019709F4A7CDEEEFFFEF16
:1051A000F0938F03E0938E03F1CD0684F785E02D15
:1051B0002DE931E03A83298300918403109185031E
:1051C00020918603309187030B831C832D833E83BC
:1051D000BE016F5F7F4FDECF4FE050E0B701C101EE
:1051E0000E94CE007C01C114D104B9F160906F031C
:1051F00070907003B301C6010E94FA2A97012E5FD6
:105200003F4F820F931F6816790608F4B4CD609162
:105210006D0370916E03A701C6010E94CE007C0150
:1052200041145104D1F0C0906F03D0907003B601C7
:10523000C2010E94FA2A97012E5F3F4F820F931FEF
:10524000C816D90608F497CD60916D0370916E036E
:10525000A701C2010E94CE007C01A701455051095F
:1052600060916D0370916E0380E10E9495020E942F
:105270008902609377037093780380937903909306
:105280007A0360937B0370937C0380937D039093F8
:105290007E0380916B0390916C03DC01ED91FC9196
:1052A0000084F185E02D0995892B21F50E94890262
:1052B00000917B0310917C0320917D0330917E034C
:1052C0006B017C01C01AD10AE20AF30A2091730330
:1052D00030917403A8EEB3E00E94062DC616D706DF
:1052E000E806F906B0F2ECEFFFEFF0938F03E093DE
:1052F0008E0341CDCE0108960E94430364307105B0
:105300008105910509F037CDE0916D03F0916E03B1
:105310008381811160C00E94890260937B03709336
:105320007C0380937D0390937E0310927F03109201
:105330008F0310928E0361EB73E0CE0101960E9401
:105340007E1763EE71E0CE0101960E948D16BC01BE
:10535000CE0108960E947E17CE0101960E949817F2
:10536000888599850E94F80761EB73E0CE0101966C
:105370000E947E1768EE71E0CE0101960E948D16A4
:10538000BC01CE0108960E946717CE0101960E94CB
:105390009817888599850E94F80761EB73E0CE0124
:1053A00001960E947E1760EF71E0CE0101960E9487
:1053B0008D16BC01CE0108960E946717CE0101969A
:1053C0000E949817888599850E94F807CE01089653
:1053D0000E949817DBCC90E090938F0380938E030C
:1053E000CACC83E00E946B078091D4028F5F8093C8
:1053F000D402863108F4D4CC93CA1092C70210921A
:10540000C6028091C2029091C302A091C402B091E1
:10541000C5020196A11DB11D8093C2029093C302E3
:10542000A093C402B093C50249CD80916D039091C1
:105430006E030E9458308BEA93E00E94981781EB2C
:1054400093E00E94981787EB93E00E9498178DEBEA
:1054500093E00E94981783EC93E00C9498178F9236
:105460009F92AF92BF92CF92DF92EF92FF92CF9333
:10547000DF93EC01688179818A819B8161157105D7
:105480008105910521F464E279ED8BE597E02DE14A
:1054900033EF41E050E00E947B2C49015A019B010F
:1054A000AC01A7EAB1E40E949A2C6B017C01ACEE3E
:1054B000B4EFA50194010E94A82CC60ED71EE81EC9
:1054C000F91EF7FE06C081E0C81AD108E10880E89D
:1054D000F80AC882D982EA82FB82C701B6019F77A7
:1054E000DF91CF91FF90EF90DF90CF90BF90AF9082
:1054F0009F908F9008958F929F92AF92BF92CF927C
:10550000DF92EF92FF9260911301709114018091EC
:10551000150190911601611571058105910521F420
:1055200064E279ED8BE597E02DE133EF41E050E067
:105530000E947B2C49015A019B01AC01A7EAB1E40E
:105540000E949A2C6B017C01ACEEB4EFA501940192
:105550000E94A82CC60ED71EE81EF91EF7FE06C034
:1055600081E0C81AD108E10880E8F80AC092130166
:10557000D0921401E0921501F0921601C701B60114
:105580009F77FF90EF90DF90CF90BF90AF909F906C
:105590008F90089560931301709314018093150107
:1055A0009093160108951F93FC0199278827BC0149
:1055B000E89411911032E9F3193010F01E30C8F35D
:1055C0001B3251F01D3249F4689406C00E941F2B13
:1055D000610F711D811D911D119110531A30B0F38F
:1055E0003EF490958095709561957F4F8F4F9F4FBA
:1055F0001F910895FC016150704001900110D8F78F
:10560000809590958E0F9F1F0895BB274A3031F4E7
:10561000992322F4BDE2909581959F4F0C94572BCE
:10562000BB272A3051F4992342F4BDE2909580952E
:10563000709561957F4F8F4F9F4F0C94352B592F4D
:10564000482F372F262F660F771F881F991F660F49
:10565000771F881F991F620F731F841F951F660F86
:10566000771F881F991F0895BB27FA01A62F62177D
:10567000710581059105330B30FB66F0AA27660F93
:10568000771F881F991FAA1FA21710F0A21B6395EE
:105690003850A9F7A05DAA3308F0A95DA19336F7A9
:1056A000B111B1931082CA010C94702BBB27FB017E
:1056B0005527AA27880F991FAA1FA41710F0A41B0B
:1056C00083955051B9F7A05DAA3308F0A95DA19365
:1056D000009779F7B111B1931192CB010C94702B13
:1056E000DC01FC01672F71917723E1F7329704C049
:1056F0007C916D9370836291AE17BF07C8F30895D4
:10570000E89409C097FB3EF490958095709561955B
:105710007F4F8F4F9F4F9923A9F0F92F96E9BB2711
:105720009395F695879577956795B795F111F8CF8D
:10573000FAF4BB0F11F460FF1BC06F5F7F4F8F4FF8
:105740009F4F16C0882311F096E911C0772321F0EE
:105750009EE8872F762F05C0662371F096E8862F86
:1057600070E060E02AF09A95660F771F881FDAF7DD
:10577000880F9695879597F908950E94D02B0C94E1
:10578000412C0E94332C38F00E943A2C20F09523B3
:1057900011F00C942A2C0C94302C11240C94752CA0
:1057A0000E94522C70F3959FC1F3950F50E0551F46
:1057B000629FF001729FBB27F00DB11D639FAA2766
:1057C000F00DB11DAA1F649F6627B00DA11D661FB5
:1057D000829F2227B00DA11D621F739FB00DA11DD6
:1057E000621F839FA00D611D221F749F3327A00D90
:1057F000611D231F849F600D211D822F762F6A2F2C
:1058000011249F5750409AF0F1F088234AF0EE0F90
:10581000FF1FBB1F661F771F881F91505040A9F7BD
:105820009E3F510580F00C942A2C0C94752C5F3F00
:10583000E4F3983ED4F3869577956795B795F795F9
:10584000E7959F5FC1F7FE2B880F911D9695879571
:1058500097F9089597F99F6780E870E060E00895F0
:105860009FEF80EC089500240A9416161706180678
:105870000906089500240A94121613061406050654
:105880000895092E0394000C11F4882352F0BB0FE5
:1058900040F4BF2B11F460FF04C06F5F7F4F8F4F48
:1058A0009F4F089557FD9058440F551F59F05F3F83
:1058B00071F04795880F97FB991F61F09F3F79F032
:1058C00087950895121613061406551FF2CF4695B4
:1058D000F1DF08C0161617061806991FF1CF869536
:1058E0007105610508940895E894BB27662777271A
:1058F000CB0197F90895052E97FB1EF400940E94A2
:10590000922C57FD07D00E94E42C07FC03D04EF4E4
:105910000C94922C50954095309521953F4F4F4FC8
:105920005F4F089590958095709561957F4F8F4F4B
:105930009F4F08950E94062DA59F900DB49F900D36
:10594000A49F800D911D11240895B7FF0C949A2CEB
:105950000E949A2C821B930B08952F923F924F9294
:105960005F926F927F928F929F92AF92BF92CF92EF
:10597000DF92EF92FF920F931F93CF93DF93CDB7F8
:10598000DEB7CA1BDB0B0FB6F894DEBF0FBECDBF70
:1059900009942A88398848885F846E847D848C8441
:1059A0009B84AA84B984C884DF80EE80FD800C814A
:1059B0001B81AA81B981CE0FD11D0FB6F894DEBF2D
:1059C0000FBECDBFED010895A1E21A2EAA1BBB1B8D
:1059D000FD010DC0AA1FBB1FEE1FFF1FA217B307BB
:1059E000E407F50720F0A21BB30BE40BF50B661FD1
:1059F000771F881F991F1A9469F760957095809595
:105A000090959B01AC01BD01CF010895A29FB0010B
:105A1000B39FC001A39F700D811D1124911DB29FE2
:105A2000700D811D1124911D0895692796276927FE
:105A30007827872778270895EE0FFF1F0590F491A8
:105A4000E02D09945058BB27AA270E943A2D0C94A8
:105A5000412C0E94332C38F00E943A2C20F039F46B
:105A60009F3F19F426F40C94302C0EF4E095E7FBDC
:105A70000C942A2CE92F0E94522C58F3BA17620773
:105A800073078407950720F079F4A6F50C94742C1D
:105A90000EF4E0950B2EBA2FA02D0B01B901900149
:105AA0000C01CA01A0011124FF27591B99F0593F8D
:105AB00050F4503E68F11A16F040A22F232F342FD5
:105AC0004427585FF3CF469537952795A795F04023
:105AD0005395C9F77EF41F16BA0B620B730B840B38
